:100000000BC08F939F9388E19DED9A95F1F78A95A8
:10001000D9F79F918F91089508E00EBF0FEF0DBFA4
:10002000C0E0D1E085E08F83482E81E0882309F489
:1000300002C0259A01C02598582E2D9A80E090E0A4
:100040008A879B878A859B8524EF31E082179307F7
:1000500008F008C00E9401008A859B8501968A8766
:100060009B87F0CF2D9880E090E08A879B878A85D8
:100070009B8524EF31E08217930708F008C00E94A7
:1000800001008A859B8501968A879B87F0CFD5CF13
:020090000895D1
:0400000300000018E1
:00000001FF
