:020000020000FC
:1000000085C00F9308E099278894881F991F10F0E6
:10001000921718F0921B089401C088940A95A9F7CA
:10002000881F0F910895EDDF892F0895482E84369B
:1000300008F431C0842D24E6E4DFA82E805D898B8E
:100040008091C000807209F001C0FACF8989809345
:10005000C600842D2AE0D5DF082F2AE0E4DF582EE1
:10006000805D898B8091C000807209F001C0FACF59
:1000700089898093C600842D2AE0D5DF682E805DB3
:10008000898B8091C000807209F001C0FACF898904
:100090008093C6002FC0842D8A3008F41FC0842DA1
:1000A0002AE0AFDF582E805D898B8091C00080727E
:1000B00009F001C0FACF89898093C600842D2AE017
:1000C000B2DF682E805D898B8091C000807209F05C
:1000D00001C0FACF89898093C6000CC0842D805D51
:1000E000898B8091C000807209F001C0FACF8989A4
:1000F0008093C60008958F939F9385E19FEF9A9513
:10010000F1F78A95D9F79F918F91089508E00EBF76
:100110000FEF0DBFC0E0D1E0519A509887E6809371
:10012000C40088278093C50086E08093C20088E1E0
:100130008093C100C82E87E880937A00B82EE6E14C
:10014000F2E05ED08091C000807209F001C0FACF69
:100150008AE08093C60080917A00806480937A0060
:1001600080917A008C83809178008B8380917900D4
:100170008A8380917A00807409F401C0FACF80915B
:1001800078008E83809179009E81222731E0829FC2
:10019000802D112499278F87988B8E819F812F85A1
:1001A0003889820F931F8F8398878F819885882E37
:1001B000992EE0E2F2E024D0882D86958695782E5F
:1001C000482E34DF8091C000807209F001C0FACF60
:1001D0008AE08093C600882799278883998388813D
:1001E000998128EC33278217930708F008C083DF32
:1001F000888199818F5F9F4F88839983F0CFABCFA0
:100200008591882339F09091C00095FFFCCF8093B1
:10021000C600F6CF089541444320726561647900B9
:060220004144433D0000D3
:00000001FF
