:100000008BC00F9308E099278894881F991F10F0E0
:10001000921718F0921B089401C088940A95A9F7CA
:10002000881F0F910895EDDF892F08958F939F9377
:1000300088E19DED9A95F1F78A95D9F79F918F9177
:100040000895482E843608F435C0842D24E60E9495
:100050000100882E805D8B8F8091C000807209F036
:1000600001C0FACF8B8D8093C600842D2AE00E94B8
:100070000100082F2AE00E941300582E805D8B8F0C
:100080008091C000807209F001C0FACF8B8D8093FF
:10009000C600842D2AE00E941300682E805D8B8F9D
:1000A0008091C000807209F001C0FACF8B8D8093DF
:1000B000C60031C0842D8A3008F421C0842D2AE086
:1000C0000E940100582E805D8B8F8091C00080724D
:1000D00009F001C0FACF8B8D8093C600842D2AE0F1
:1000E0000E941300682E805D8B8F8091C00080720B
:1000F00009F001C0FACF8B8D8093C6000CC0842D0F
:10010000805D8B8F8091C000807209F001C0FACFB2
:100110008B8D8093C600089508E00EBF0FEF0DBFD2
:10012000C0E0D1E0519A509887E68093C40080E007
:100130008093C50086E08093C20088E18093C1006F
:10014000B82E80E480937C0087E880937A00C82EE4
:1001500080E0898781E48A878A85803009F413C02A
:100160008091C000807209F001C0FACF8A85809327
:10017000C600898583958987E2E7F2E0E80FF11DE3
:1001800084918A87E9CF8091C000807209F001C014
:10019000FACF8AE08093C60080917A0080648093D1
:1001A0007A0080917A00807409F401C0FACF8091BE
:1001B00078008B87809179008C879D8520E031E0E5
:1001C000829F402D512D839F500D929F500D842F63
:1001D000952F11248D879E878B859C852D853E8547
:1001E000820F931F8F87988B8F859889982EA92EC1
:1001F00080E08B8B81E48C8B8C89803009F413C078
:100200008091C000807209F001C0FACF8C89809380
:10021000C6008B8983958B8BECE7F2E0E80FF11D2C
:1002200084918C8BE9CF892D86958695782E482EE2
:100230000E9421008091C000807209F001C0FACFB5
:100240008AE08093C60080E090E08F8B988F8F8942
:10025000988D28EC30E08217930708F008C00E94C0
:1002600016008F89988D01968F8B988FF0CF94CF41
:100270000895414443207265616479004144433DDF
:0202800000007C
:0400000300000118E0
:00000001FF
